{
  "contractName": "AuctionPlatform",
  "abi": [
    {
      "anonymous": false,
      "inputs": [
        {
          "indexed": false,
          "internalType": "uint256",
          "name": "auctionId",
          "type": "uint256"
        },
        {
          "indexed": true,
          "internalType": "address",
          "name": "owner",
          "type": "address"
        },
        {
          "indexed": false,
          "internalType": "string",
          "name": "itemDescription",
          "type": "string"
        },
        {
          "indexed": false,
          "internalType": "uint256",
          "name": "endTime",
          "type": "uint256"
        }
      ],
      "name": "AuctionCreated",
      "type": "event"
    },
    {
      "anonymous": false,
      "inputs": [
        {
          "indexed": true,
          "internalType": "uint256",
          "name": "auctionId",
          "type": "uint256"
        },
        {
          "indexed": false,
          "internalType": "address",
          "name": "winner",
          "type": "address"
        },
        {
          "indexed": false,
          "internalType": "uint256",
          "name": "amount",
          "type": "uint256"
        }
      ],
      "name": "AuctionEnded",
      "type": "event"
    },
    {
      "anonymous": false,
      "inputs": [
        {
          "indexed": true,
          "internalType": "uint256",
          "name": "auctionId",
          "type": "uint256"
        },
        {
          "indexed": true,
          "internalType": "address",
          "name": "bidder",
          "type": "address"
        },
        {
          "indexed": false,
          "internalType": "uint256",
          "name": "amount",
          "type": "uint256"
        }
      ],
      "name": "BidPlaced",
      "type": "event"
    },
    {
      "inputs": [
        {
          "internalType": "uint256",
          "name": "",
          "type": "uint256"
        }
      ],
      "name": "activeAuctionIds",
      "outputs": [
        {
          "internalType": "uint256",
          "name": "",
          "type": "uint256"
        }
      ],
      "stateMutability": "view",
      "type": "function",
      "constant": true
    },
    {
      "inputs": [],
      "name": "auctionCount",
      "outputs": [
        {
          "internalType": "uint256",
          "name": "",
          "type": "uint256"
        }
      ],
      "stateMutability": "view",
      "type": "function",
      "constant": true
    },
    {
      "inputs": [
        {
          "internalType": "uint256",
          "name": "",
          "type": "uint256"
        }
      ],
      "name": "auctions",
      "outputs": [
        {
          "internalType": "address",
          "name": "owner",
          "type": "address"
        },
        {
          "internalType": "string",
          "name": "itemDescription",
          "type": "string"
        },
        {
          "internalType": "address",
          "name": "highestBidder",
          "type": "address"
        },
        {
          "internalType": "uint256",
          "name": "highestBid",
          "type": "uint256"
        },
        {
          "internalType": "uint256",
          "name": "endTime",
          "type": "uint256"
        },
        {
          "internalType": "bool",
          "name": "ended",
          "type": "bool"
        }
      ],
      "stateMutability": "view",
      "type": "function",
      "constant": true
    },
    {
      "inputs": [
        {
          "internalType": "string",
          "name": "_itemDescription",
          "type": "string"
        },
        {
          "internalType": "uint256",
          "name": "_duration",
          "type": "uint256"
        }
      ],
      "name": "createAuction",
      "outputs": [],
      "stateMutability": "nonpayable",
      "type": "function"
    },
    {
      "inputs": [
        {
          "internalType": "uint256",
          "name": "_auctionId",
          "type": "uint256"
        }
      ],
      "name": "placeBid",
      "outputs": [],
      "stateMutability": "payable",
      "type": "function",
      "payable": true
    },
    {
      "inputs": [
        {
          "internalType": "uint256",
          "name": "_auctionId",
          "type": "uint256"
        }
      ],
      "name": "withdraw",
      "outputs": [],
      "stateMutability": "nonpayable",
      "type": "function"
    },
    {
      "inputs": [
        {
          "internalType": "uint256",
          "name": "_auctionId",
          "type": "uint256"
        }
      ],
      "name": "endAuction",
      "outputs": [],
      "stateMutability": "nonpayable",
      "type": "function"
    },
    {
      "inputs": [],
      "name": "getActiveAuctionIds",
      "outputs": [
        {
          "internalType": "uint256[]",
          "name": "",
          "type": "uint256[]"
        }
      ],
      "stateMutability": "view",
      "type": "function",
      "constant": true
    },
    {
      "inputs": [
        {
          "internalType": "uint256",
          "name": "_auctionId",
          "type": "uint256"
        }
      ],
      "name": "getAuctionDetails",
      "outputs": [
        {
          "internalType": "address",
          "name": "owner",
          "type": "address"
        },
        {
          "internalType": "string",
          "name": "itemDescription",
          "type": "string"
        },
        {
          "internalType": "address",
          "name": "highestBidder",
          "type": "address"
        },
        {
          "internalType": "uint256",
          "name": "highestBid",
          "type": "uint256"
        },
        {
          "internalType": "uint256",
          "name": "endTime",
          "type": "uint256"
        },
        {
          "internalType": "bool",
          "name": "ended",
          "type": "bool"
        }
      ],
      "stateMutability": "view",
      "type": "function",
      "constant": true
    },
    {
      "inputs": [
        {
          "internalType": "uint256",
          "name": "_auctionId",
          "type": "uint256"
        }
      ],
      "name": "getHighestBid",
      "outputs": [
        {
          "internalType": "address",
          "name": "highestBidder",
          "type": "address"
        },
        {
          "internalType": "uint256",
          "name": "highestBid",
          "type": "uint256"
        }
      ],
      "stateMutability": "view",
      "type": "function",
      "constant": true
    }
  ],
  "bytecode": "0x608060405234801561001057600080fd5b50611850806100206000396000f3fe6080604052600436106100915760003560e01c80639979ef45116100595780639979ef45146101a7578063b9a2de3a146101c3578063f20e5e35146101ec578063fdc5f3d11461022e578063ff8952391461025957610091565b80632ad71573146100965780632c6ea90d146100c15780632e1a7d4d146100fe578063571a26a0146101275780638f28864414610169575b600080fd5b3480156100a257600080fd5b506100ab610282565b6040516100b89190610d69565b60405180910390f35b3480156100cd57600080fd5b506100e860048036038101906100e39190610dba565b610288565b6040516100f59190610d69565b60405180910390f35b34801561010a57600080fd5b5061012560048036038101906101209190610dba565b6102ac565b005b34801561013357600080fd5b5061014e60048036038101906101499190610dba565b6103df565b60405161016096959493929190610ed3565b60405180910390f35b34801561017557600080fd5b50610190600480360381019061018b9190610dba565b6104f0565b60405161019e929190610f3b565b60405180910390f35b6101c160048036038101906101bc9190610dba565b61053e565b005b3480156101cf57600080fd5b506101ea60048036038101906101e59190610dba565b6107d1565b005b3480156101f857600080fd5b50610213600480360381019061020e9190610dba565b6109db565b60405161022596959493929190610ed3565b60405180910390f35b34801561023a57600080fd5b50610243610b08565b6040516102509190611022565b60405180910390f35b34801561026557600080fd5b50610280600480360381019061027b91906110a9565b610b60565b005b60005481565b6002818154811061029857600080fd5b906000526020600020016000915090505481565b600060016000838152602001908152602001600020905060008160060160003373ffffffffffffffffffffffffffffffffffffffff1673ffffffffffffffffffffffffffffffffffffffff1681526020019081526020016000205490506000811161034c576040517f08c379a000000000000000000000000000000000000000000000000000000000815260040161034390611155565b60405180910390fd5b60008260060160003373ffffffffffffffffffffffffffffffffffffffff1673ffffffffffffffffffffffffffffffffffffffff168152602001908152602001600020819055503373ffffffffffffffffffffffffffffffffffffffff166108fc829081150290604051600060405180830381858888f193505050501580156103d9573d6000803e3d6000fd5b50505050565b60016020528060005260406000206000915090508060000160009054906101000a900473ffffffffffffffffffffffffffffffffffffffff1690806001018054610428906111a4565b80601f0160208091040260200160405190810160405280929190818152602001828054610454906111a4565b80156104a15780601f10610476576101008083540402835291602001916104a1565b820191906000526020600020905b81548152906001019060200180831161048457829003601f168201915b5050505050908060020160009054906101000a900473ffffffffffffffffffffffffffffffffffffffff16908060030154908060040154908060050160009054906101000a900460ff16905086565b60008060006001600085815260200190815260200160002090508060020160009054906101000a900473ffffffffffffffffffffffffffffffffffffffff1681600301549250925050915091565b8060016000828152602001908152602001600020600401544210610597576040517f08c379a000000000000000000000000000000000000000000000000000000000815260040161058e90611221565b60405180910390fd5b6001600082815260200190815260200160002060050160009054906101000a900460ff16156105fb576040517f08c379a00000000000000000000000000000000000000000000000000000000081526004016105f29061128d565b60405180910390fd5b600060016000848152602001908152602001600020905080600301543411610658576040517f08c379a000000000000000000000000000000000000000000000000000000000815260040161064f906112f9565b60405180910390fd5b600073ffffffffffffffffffffffffffffffffffffffff168160020160009054906101000a900473ffffffffffffffffffffffffffffffffffffffff1673ffffffffffffffffffffffffffffffffffffffff16146107315780600301548160060160008360020160009054906101000a900473ffffffffffffffffffffffffffffffffffffffff1673ffffffffffffffffffffffffffffffffffffffff1673ffffffffffffffffffffffffffffffffffffffff16815260200190815260200160002060008282546107299190611348565b925050819055505b338160020160006101000a81548173ffffffffffffffffffffffffffffffffffffffff021916908373ffffffffffffffffffffffffffffffffffffffff1602179055503481600301819055503373ffffffffffffffffffffffffffffffffffffffff16837f0e54eff26401bf69b81b26f60bd85ef47f5d85275c1d268d84f68d6897431c47346040516107c49190610d69565b60405180910390a3505050565b806001600082815260200190815260200160002060000160009054906101000a900473ffffffffffffffffffffffffffffffffffffffff1673ffffffffffffffffffffffffffffffffffffffff163373ffffffffffffffffffffffffffffffffffffffff1614610876576040517f08c379a000000000000000000000000000000000000000000000000000000000815260040161086d906113ee565b60405180910390fd5b60006001600084815260200190815260200160002090508060050160009054906101000a900460ff16156108df576040517f08c379a00000000000000000000000000000000000000000000000000000000081526004016108d69061128d565b60405180910390fd5b60018160050160006101000a81548160ff021916908315150217905550827fd2aa34a4fdbbc6dff6a3e56f46e0f3ae2a31d7785ff3487aa5c95c642acea5018260020160009054906101000a900473ffffffffffffffffffffffffffffffffffffffff168360030154604051610956929190610f3b565b60405180910390a28060000160009054906101000a900473ffffffffffffffffffffffffffffffffffffffff1673ffffffffffffffffffffffffffffffffffffffff166108fc82600301549081150290604051600060405180830381858888f193505050501580156109cc573d6000803e3d6000fd5b506109d683610c85565b505050565b6000606060008060008060006001600089815260200190815260200160002090508060000160009054906101000a900473ffffffffffffffffffffffffffffffffffffffff16816001018260020160009054906101000a900473ffffffffffffffffffffffffffffffffffffffff16836003015484600401548560050160009054906101000a900460ff16848054610a72906111a4565b80601f0160208091040260200160405190810160405280929190818152602001828054610a9e906111a4565b8015610aeb5780601f10610ac057610100808354040283529160200191610aeb565b820191906000526020600020905b815481529060010190602001808311610ace57829003601f168201915b505050505094509650965096509650965096505091939550919395565b60606002805480602002602001604051908101604052809291908181526020018280548015610b5657602002820191906000526020600020905b815481526020019060010190808311610b42575b5050505050905090565b600080815480929190610b729061140e565b9190505550600060016000805481526020019081526020016000209050338160000160006101000a81548173ffffffffffffffffffffffffffffffffffffffff021916908373ffffffffffffffffffffffffffffffffffffffff1602179055508383826001019182610be592919061163c565b508142610bf29190611348565b8160040181905550600260005490806001815401808255809150506001900390600052602060002001600090919091909150553373ffffffffffffffffffffffffffffffffffffffff167f568694aa4b5066fe5362111fcfda3f97f456688bc2adc2538c2f2c1acf954b3460005486868560040154604051610c779493929190611748565b60405180910390a250505050565b60005b600280549050811015610d4c578160028281548110610caa57610ca9611788565b5b906000526020600020015403610d395760026001600280549050610cce91906117b7565b81548110610cdf57610cde611788565b5b906000526020600020015460028281548110610cfe57610cfd611788565b5b90600052602060002001819055506002805480610d1e57610d1d6117eb565b5b60019003818190600052602060002001600090559055610d4c565b8080610d449061140e565b915050610c88565b5050565b6000819050919050565b610d6381610d50565b82525050565b6000602082019050610d7e6000830184610d5a565b92915050565b600080fd5b600080fd5b610d9781610d50565b8114610da257600080fd5b50565b600081359050610db481610d8e565b92915050565b600060208284031215610dd057610dcf610d84565b5b6000610dde84828501610da5565b91505092915050565b600073ffffffffffffffffffffffffffffffffffffffff82169050919050565b6000610e1282610de7565b9050919050565b610e2281610e07565b82525050565b600081519050919050565b600082825260208201905092915050565b60005b83811015610e62578082015181840152602081019050610e47565b60008484015250505050565b6000601f19601f8301169050919050565b6000610e8a82610e28565b610e948185610e33565b9350610ea4818560208601610e44565b610ead81610e6e565b840191505092915050565b60008115159050919050565b610ecd81610eb8565b82525050565b600060c082019050610ee86000830189610e19565b8181036020830152610efa8188610e7f565b9050610f096040830187610e19565b610f166060830186610d5a565b610f236080830185610d5a565b610f3060a0830184610ec4565b979650505050505050565b6000604082019050610f506000830185610e19565b610f5d6020830184610d5a565b9392505050565b600081519050919050565b600082825260208201905092915050565b6000819050602082019050919050565b610f9981610d50565b82525050565b6000610fab8383610f90565b60208301905092915050565b6000602082019050919050565b6000610fcf82610f64565b610fd98185610f6f565b9350610fe483610f80565b8060005b83811015611015578151610ffc8882610f9f565b975061100783610fb7565b925050600181019050610fe8565b5085935050505092915050565b6000602082019050818103600083015261103c8184610fc4565b905092915050565b600080fd5b600080fd5b600080fd5b60008083601f84011261106957611068611044565b5b8235905067ffffffffffffffff81111561108657611085611049565b5b6020830191508360018202830111156110a2576110a161104e565b5b9250929050565b6000806000604084860312156110c2576110c1610d84565b5b600084013567ffffffffffffffff8111156110e0576110df610d89565b5b6110ec86828701611053565b935093505060206110ff86828701610da5565b9150509250925092565b7f4e6f2066756e647320746f207769746864726177000000000000000000000000600082015250565b600061113f601483610e33565b915061114a82611109565b602082019050919050565b6000602082019050818103600083015261116e81611132565b9050919050565b7f4e487b7100000000000000000000000000000000000000000000000000000000600052602260045260246000fd5b600060028204905060018216806111bc57607f821691505b6020821081036111cf576111ce611175565b5b50919050565b7f41756374696f6e2068617320656e646564000000000000000000000000000000600082015250565b600061120b601183610e33565b9150611216826111d5565b602082019050919050565b6000602082019050818103600083015261123a816111fe565b9050919050565b7f41756374696f6e20616c726561647920656e6465640000000000000000000000600082015250565b6000611277601583610e33565b915061128282611241565b602082019050919050565b600060208201905081810360008301526112a68161126a565b9050919050565b7f426964206973206e6f74206869676820656e6f75676800000000000000000000600082015250565b60006112e3601683610e33565b91506112ee826112ad565b602082019050919050565b60006020820190508181036000830152611312816112d6565b9050919050565b7f4e487b7100000000000000000000000000000000000000000000000000000000600052601160045260246000fd5b600061135382610d50565b915061135e83610d50565b925082820190508082111561137657611375611319565b5b92915050565b7f4f6e6c79207468652061756374696f6e206f776e65722063616e20706572666f60008201527f726d207468697320616374696f6e000000000000000000000000000000000000602082015250565b60006113d8602e83610e33565b91506113e38261137c565b604082019050919050565b60006020820190508181036000830152611407816113cb565b9050919050565b600061141982610d50565b91507fffffffffffffffffffffffffffffffffffffffffffffffffffffffffffffffff820361144b5761144a611319565b5b600182019050919050565b600082905092915050565b7f4e487b7100000000000000000000000000000000000000000000000000000000600052604160045260246000fd5b60008190508160005260206000209050919050565b60006020601f8301049050919050565b600082821b905092915050565b6000600883026114f27fffffffffffffffffffffffffffffffffffffffffffffffffffffffffffffffff826114b5565b6114fc86836114b5565b95508019841693508086168417925050509392505050565b6000819050919050565b600061153961153461152f84610d50565b611514565b610d50565b9050919050565b6000819050919050565b6115538361151e565b61156761155f82611540565b8484546114c2565b825550505050565b600090565b61157c61156f565b61158781848461154a565b505050565b5b818110156115ab576115a0600082611574565b60018101905061158d565b5050565b601f8211156115f0576115c181611490565b6115ca846114a5565b810160208510156115d9578190505b6115ed6115e5856114a5565b83018261158c565b50505b505050565b600082821c905092915050565b6000611613600019846008026115f5565b1980831691505092915050565b600061162c8383611602565b9150826002028217905092915050565b6116468383611456565b67ffffffffffffffff81111561165f5761165e611461565b5b61166982546111a4565b6116748282856115af565b6000601f8311600181146116a35760008415611691578287013590505b61169b8582611620565b865550611703565b601f1984166116b186611490565b60005b828110156116d9578489013582556001820191506020850194506020810190506116b4565b868310156116f657848901356116f2601f891682611602565b8355505b6001600288020188555050505b50505050505050565b82818337600083830152505050565b60006117278385610e33565b935061173483858461170c565b61173d83610e6e565b840190509392505050565b600060608201905061175d6000830187610d5a565b818103602083015261177081858761171b565b905061177f6040830184610d5a565b95945050505050565b7f4e487b7100000000000000000000000000000000000000000000000000000000600052603260045260246000fd5b60006117c282610d50565b91506117cd83610d50565b92508282039050818111156117e5576117e4611319565b5b92915050565b7f4e487b7100000000000000000000000000000000000000000000000000000000600052603160045260246000fdfea26469706673582212203187230c3960102b3c648f00d0c4ee5952308e3e5065b19708e83859b98566ae64736f6c63430008110033",
  "immutableReferences": {},
  "source": "// SPDX-License-Identifier: MIT\r\npragma solidity ^0.8.0;\r\n\r\ncontract AuctionPlatform {\r\n    struct Auction {\r\n        address owner;\r\n        string itemDescription;\r\n        address highestBidder;\r\n        uint256 highestBid;\r\n        uint256 endTime;\r\n        bool ended;\r\n        mapping(address => uint256) bids;\r\n    }\r\n\r\n    uint256 public auctionCount;\r\n    mapping(uint256 => Auction) public auctions;\r\n    uint256[] public activeAuctionIds; // List of active auction IDs\r\n\r\n    event AuctionCreated(uint256 auctionId, address indexed owner, string itemDescription, uint256 endTime);\r\n    event BidPlaced(uint256 indexed auctionId, address indexed bidder, uint256 amount);\r\n    event AuctionEnded(uint256 indexed auctionId, address winner, uint256 amount);\r\n\r\n    modifier onlyOwner(uint256 _auctionId) {\r\n        require(msg.sender == auctions[_auctionId].owner, \"Only the auction owner can perform this action\");\r\n        _;\r\n    }\r\n\r\n    modifier auctionActive(uint256 _auctionId) {\r\n        require(block.timestamp < auctions[_auctionId].endTime, \"Auction has ended\");\r\n        require(!auctions[_auctionId].ended, \"Auction already ended\");\r\n        _;\r\n    }\r\n\r\n    function createAuction(string calldata _itemDescription, uint256 _duration) external {\r\n        auctionCount++;\r\n        Auction storage auction = auctions[auctionCount];\r\n        auction.owner = msg.sender;\r\n        auction.itemDescription = _itemDescription;\r\n        auction.endTime = block.timestamp + _duration;\r\n        \r\n        activeAuctionIds.push(auctionCount); // Add auction ID to active list\r\n        emit AuctionCreated(auctionCount, msg.sender, _itemDescription, auction.endTime);\r\n    }\r\n\r\n    function placeBid(uint256 _auctionId) external payable auctionActive(_auctionId) {\r\n        Auction storage auction = auctions[_auctionId];\r\n        require(msg.value > auction.highestBid, \"Bid is not high enough\");\r\n\r\n        // Refund the previous highest bidder\r\n        if (auction.highestBidder != address(0)) {\r\n            auction.bids[auction.highestBidder] += auction.highestBid;\r\n        }\r\n\r\n        auction.highestBidder = msg.sender;\r\n        auction.highestBid = msg.value;\r\n        \r\n        emit BidPlaced(_auctionId, msg.sender, msg.value);\r\n    }\r\n\r\n    function withdraw(uint256 _auctionId) external {\r\n        Auction storage auction = auctions[_auctionId];\r\n        uint256 amount = auction.bids[msg.sender];\r\n        require(amount > 0, \"No funds to withdraw\");\r\n\r\n        auction.bids[msg.sender] = 0;\r\n        payable(msg.sender).transfer(amount);\r\n    }\r\n\r\n   function endAuction(uint256 _auctionId) external onlyOwner(_auctionId) {\r\n    Auction storage auction = auctions[_auctionId];\r\n    require(!auction.ended, \"Auction already ended\");\r\n\r\n    auction.ended = true;\r\n    emit AuctionEnded(_auctionId, auction.highestBidder, auction.highestBid);\r\n\r\n    // Transfer the highest bid to the auction owner\r\n    payable(auction.owner).transfer(auction.highestBid);\r\n\r\n    // Remove auction from the list of active auctions\r\n    _removeAuctionFromActiveList(_auctionId);\r\n}\r\n    // Internal function to remove the auction from activeAuctionIds\r\n    function _removeAuctionFromActiveList(uint256 _auctionId) internal {\r\n        for (uint256 i = 0; i < activeAuctionIds.length; i++) {\r\n            if (activeAuctionIds[i] == _auctionId) {\r\n                activeAuctionIds[i] = activeAuctionIds[activeAuctionIds.length - 1];\r\n                activeAuctionIds.pop();\r\n                break;\r\n            }\r\n        }\r\n    }\r\n\r\n    // Function to retrieve all active auction IDs\r\n    function getActiveAuctionIds() external view returns (uint256[] memory) {\r\n        return activeAuctionIds;\r\n    }\r\n\r\n    // Function to get details of an auction\r\n    function getAuctionDetails(uint256 _auctionId) external view returns (\r\n        address owner,\r\n        string memory itemDescription,\r\n        address highestBidder,\r\n        uint256 highestBid,\r\n        uint256 endTime,\r\n        bool ended\r\n    ) {\r\n        Auction storage auction = auctions[_auctionId];\r\n        return (\r\n            auction.owner,\r\n            auction.itemDescription,\r\n            auction.highestBidder,\r\n            auction.highestBid,\r\n            auction.endTime,\r\n            auction.ended\r\n        );\r\n    }\r\n\r\n    // Function to get the highest bid and bidder for a specific auction\r\n    function getHighestBid(uint256 _auctionId) external view returns (address highestBidder, uint256 highestBid) {\r\n        Auction storage auction = auctions[_auctionId];\r\n        return (auction.highestBidder, auction.highestBid);\r\n    }\r\n}\r\n",
  "sourcePath": "C:\\Users\\Doha\\Desktop\\auctionapp\\contracts\\AuctionPlatform.sol",
  "compiler": {
    "name": "solc",
    "version": "0.8.17+commit.8df45f5f.Emscripten.clang"
  },
  "schemaVersion": "3.4.16",
  "updatedAt": "2024-11-05T16:38:34.795Z",
  "networkType": "ethereum",
  "devdoc": {
    "kind": "dev",
    "methods": {},
    "version": 1
  },
  "userdoc": {
    "kind": "user",
    "methods": {},
    "version": 1
  }
}